{
  "contractName": "BscBridge",
  "abi": [
    {
      "inputs": [],
      "stateMutability": "nonpayable",
      "type": "constructor"
    },
    {
      "inputs": [
        {
          "internalType": "uint256",
          "name": "_amount",
          "type": "uint256"
        }
      ],
      "name": "calc_fee",
      "outputs": [
        {
          "internalType": "uint256",
          "name": "",
          "type": "uint256"
        }
      ],
      "stateMutability": "view",
      "type": "function",
      "constant": true
    },
    {
      "inputs": [],
      "name": "balanceOf",
      "outputs": [
        {
          "internalType": "uint256",
          "name": "",
          "type": "uint256"
        }
      ],
      "stateMutability": "view",
      "type": "function",
      "constant": true
    },
    {
      "inputs": [
        {
          "internalType": "uint256",
          "name": "_amount",
          "type": "uint256"
        }
      ],
      "name": "deposit",
      "outputs": [
        {
          "internalType": "bool",
          "name": "",
          "type": "bool"
        }
      ],
      "stateMutability": "nonpayable",
      "type": "function"
    },
    {
      "inputs": [
        {
          "internalType": "uint256",
          "name": "_amount",
          "type": "uint256"
        }
      ],
      "name": "withdraw",
      "outputs": [
        {
          "internalType": "bool",
          "name": "",
          "type": "bool"
        }
      ],
      "stateMutability": "nonpayable",
      "type": "function"
    }
  ],
  "bytecode": "0x6080604052604051610010906100bf565b604051809103906000f08015801561002c573d6000803e3d6000fd5b50600260006101000a81548173ffffffffffffffffffffffffffffffffffffffff021916908373ffffffffffffffffffffffffffffffffffffffff16021790555034801561007957600080fd5b50336000806101000a81548173ffffffffffffffffffffffffffffffffffffffff021916908373ffffffffffffffffffffffffffffffffffffffff1602179055506100cc565b6106508061061a83390190565b61053f806100db6000396000f3fe608060405234801561001057600080fd5b506004361061004c5760003560e01c80632e1a7d4d14610051578063722713f714610081578063ae7e0a7d1461009f578063b6b55f25146100cf575b600080fd5b61006b600480360381019061006691906102f5565b6100ff565b6040516100789190610374565b60405180910390f35b6100896101ba565b604051610096919061038f565b60405180910390f35b6100b960048036038101906100b491906102f5565b6101c4565b6040516100c6919061038f565b60405180910390f35b6100e960048036038101906100e491906102f5565b6101e7565b6040516100f69190610374565b60405180910390f35b6000600260009054906101000a900473ffffffffffffffffffffffffffffffffffffffff1673ffffffffffffffffffffffffffffffffffffffff1663f3fef3a330846040518363ffffffff1660e01b815260040161015e92919061034b565b602060405180830381600087803b15801561017857600080fd5b505af115801561018c573d6000803e3d6000fd5b505050506040513d601f19601f820116820180604052508101906101b091906102cc565b5060019050919050565b6000600154905090565b60006127106004836101d691906103db565b6101e091906103aa565b9050919050565b6000600260009054906101000a900473ffffffffffffffffffffffffffffffffffffffff1673ffffffffffffffffffffffffffffffffffffffff1663a9059cbb30846040518363ffffffff1660e01b815260040161024692919061034b565b602060405180830381600087803b15801561026057600080fd5b505af1158015610274573d6000803e3d6000fd5b505050506040513d601f19601f8201168201806040525081019061029891906102cc565b5060019050919050565b6000815190506102b1816104db565b92915050565b6000813590506102c6816104f2565b92915050565b6000602082840312156102de57600080fd5b60006102ec848285016102a2565b91505092915050565b60006020828403121561030757600080fd5b6000610315848285016102b7565b91505092915050565b61032781610435565b82525050565b61033681610447565b82525050565b61034581610473565b82525050565b6000604082019050610360600083018561031e565b61036d602083018461033c565b9392505050565b6000602082019050610389600083018461032d565b92915050565b60006020820190506103a4600083018461033c565b92915050565b60006103b582610473565b91506103c083610473565b9250826103d0576103cf6104ac565b5b828204905092915050565b60006103e682610473565b91506103f183610473565b9250817fffffffffffffffffffffffffffffffffffffffffffffffffffffffffffffffff048311821515161561042a5761042961047d565b5b828202905092915050565b600061044082610453565b9050919050565b60008115159050919050565b600073ffffffffffffffffffffffffffffffffffffffff82169050919050565b6000819050919050565b7f4e487b7100000000000000000000000000000000000000000000000000000000600052601160045260246000fd5b7f4e487b7100000000000000000000000000000000000000000000000000000000600052601260045260246000fd5b6104e481610447565b81146104ef57600080fd5b50565b6104fb81610473565b811461050657600080fd5b5056fea2646970667358221220dfafcb11b8aca4f571b89b3b143debed9693acfb14c1b76a89204030bb4b0a7864736f6c63430008040033608060405234801561001057600080fd5b50336000806101000a81548173ffffffffffffffffffffffffffffffffffffffff021916908373ffffffffffffffffffffffffffffffffffffffff160217905550612710600281905550600254600160003373ffffffffffffffffffffffffffffffffffffffff1673ffffffffffffffffffffffffffffffffffffffff168152602001908152602001600020819055506105a1806100af6000396000f3fe608060405234801561001057600080fd5b50600436106100415760003560e01c806370a0823114610046578063a9059cbb14610076578063f3fef3a3146100a6575b600080fd5b610060600480360381019061005b9190610383565b6100d6565b60405161006d9190610421565b60405180910390f35b610090600480360381019061008b91906103ac565b61011f565b60405161009d9190610406565b60405180910390f35b6100c060048036038101906100bb91906103ac565b61023c565b6040516100cd9190610406565b60405180910390f35b6000600160008373ffffffffffffffffffffffffffffffffffffffff1673ffffffffffffffffffffffffffffffffffffffff168152602001908152602001600020549050919050565b600081600160003373ffffffffffffffffffffffffffffffffffffffff1673ffffffffffffffffffffffffffffffffffffffff16815260200190815260200160002060008282546101709190610492565b9250508190555081600160008573ffffffffffffffffffffffffffffffffffffffff1673ffffffffffffffffffffffffffffffffffffffff16815260200190815260200160002060008282546101c6919061043c565b925050819055508273ffffffffffffffffffffffffffffffffffffffff163373ffffffffffffffffffffffffffffffffffffffff167fddf252ad1be2c89b69c2b068fc378daa952ba7f163c4a11628f55a4df523b3ef8460405161022a9190610421565b60405180910390a36001905092915050565b600081600160003373ffffffffffffffffffffffffffffffffffffffff1673ffffffffffffffffffffffffffffffffffffffff168152602001908152602001600020600082825461028d919061043c565b9250508190555081600160008573ffffffffffffffffffffffffffffffffffffffff1673ffffffffffffffffffffffffffffffffffffffff16815260200190815260200160002060008282546102e39190610492565b925050819055503373ffffffffffffffffffffffffffffffffffffffff168373ffffffffffffffffffffffffffffffffffffffff167fddf252ad1be2c89b69c2b068fc378daa952ba7f163c4a11628f55a4df523b3ef846040516103479190610421565b60405180910390a36001905092915050565b6000813590506103688161053d565b92915050565b60008135905061037d81610554565b92915050565b60006020828403121561039557600080fd5b60006103a384828501610359565b91505092915050565b600080604083850312156103bf57600080fd5b60006103cd85828601610359565b92505060206103de8582860161036e565b9150509250929050565b6103f1816104d8565b82525050565b61040081610504565b82525050565b600060208201905061041b60008301846103e8565b92915050565b600060208201905061043660008301846103f7565b92915050565b600061044782610504565b915061045283610504565b9250827fffffffffffffffffffffffffffffffffffffffffffffffffffffffffffffffff038211156104875761048661050e565b5b828201905092915050565b600061049d82610504565b91506104a883610504565b9250828210156104bb576104ba61050e565b5b828203905092915050565b60006104d1826104e4565b9050919050565b60008115159050919050565b600073ffffffffffffffffffffffffffffffffffffffff82169050919050565b6000819050919050565b7f4e487b7100000000000000000000000000000000000000000000000000000000600052601160045260246000fd5b610546816104c6565b811461055157600080fd5b50565b61055d81610504565b811461056857600080fd5b5056fea264697066735822122020709c81db8612f34c53f71bd268c0bf8078a1c7621707be3989b72530f4d6d964736f6c63430008040033",
  "immutableReferences": {},
  "source": "// SPDX-License-Identifier: MIT\npragma solidity ^0.8.0;\n\nimport \"@openzeppelin/contracts/token/ERC20/ERC20.sol\";\nimport \"./FakeUSDC.sol\";\n\ncontract BscBridge {\n    address owner;\n    uint balance;\n    FakeUSDC usdc = new FakeUSDC();\n    constructor() {\n        owner = msg.sender;\n    }\n\n    function calc_fee(uint _amount) public view returns(uint) {\n        return _amount * 4 / 10000;\n    }\n\n    function balanceOf() public view returns (uint) {\n        return balance;\n    }\n\n    function deposit(uint _amount) public returns (bool) {\n        usdc.transfer(address(this), _amount);\n        return true;\n    }\n\n    function withdraw(uint _amount) public returns(bool) {\n        usdc.withdraw(address(this), _amount);\n        return true;\n    }   \n}",
  "sourcePath": "/home/oncemore/BlockchainWork/usdc_bridge/contracts/BscBridge.sol",
  "compiler": {
    "name": "solc",
    "version": "0.8.4+commit.c7e474f2.Emscripten.clang"
  },
  "schemaVersion": "3.3.4",
  "updatedAt": "2021-05-27T18:38:17.943Z",
  "networkType": "ethereum",
  "devdoc": {
    "kind": "dev",
    "methods": {},
    "version": 1
  },
  "userdoc": {
    "kind": "user",
    "methods": {},
    "version": 1
  }
}