{
  "contractName": "FakeUsdc",
  "abi": [
    {
      "inputs": [],
      "stateMutability": "nonpayable",
      "type": "constructor"
    },
    {
      "anonymous": false,
      "inputs": [
        {
          "indexed": false,
          "internalType": "address",
          "name": "_from",
          "type": "address"
        },
        {
          "indexed": false,
          "internalType": "uint256",
          "name": "from_balance",
          "type": "uint256"
        },
        {
          "indexed": false,
          "internalType": "address",
          "name": "_to",
          "type": "address"
        },
        {
          "indexed": false,
          "internalType": "uint256",
          "name": "to_balance",
          "type": "uint256"
        }
      ],
      "name": "SafeTransfered",
      "type": "event"
    },
    {
      "anonymous": false,
      "inputs": [
        {
          "indexed": false,
          "internalType": "address",
          "name": "_receiver",
          "type": "address"
        },
        {
          "indexed": false,
          "internalType": "uint256",
          "name": "_balance",
          "type": "uint256"
        }
      ],
      "name": "Sold",
      "type": "event"
    },
    {
      "anonymous": false,
      "inputs": [
        {
          "indexed": false,
          "internalType": "address",
          "name": "_from",
          "type": "address"
        },
        {
          "indexed": false,
          "internalType": "uint256",
          "name": "from_balance",
          "type": "uint256"
        },
        {
          "indexed": false,
          "internalType": "address",
          "name": "_to",
          "type": "address"
        },
        {
          "indexed": false,
          "internalType": "uint256",
          "name": "to_balance",
          "type": "uint256"
        }
      ],
      "name": "Transfered",
      "type": "event"
    },
    {
      "inputs": [
        {
          "internalType": "uint256",
          "name": "_amount",
          "type": "uint256"
        }
      ],
      "name": "sell",
      "outputs": [
        {
          "internalType": "address",
          "name": "",
          "type": "address"
        }
      ],
      "stateMutability": "nonpayable",
      "type": "function"
    },
    {
      "inputs": [
        {
          "internalType": "address",
          "name": "_to",
          "type": "address"
        },
        {
          "internalType": "uint256",
          "name": "_amount",
          "type": "uint256"
        }
      ],
      "name": "transfer",
      "outputs": [
        {
          "internalType": "address",
          "name": "",
          "type": "address"
        }
      ],
      "stateMutability": "nonpayable",
      "type": "function"
    },
    {
      "inputs": [
        {
          "internalType": "address",
          "name": "_from",
          "type": "address"
        },
        {
          "internalType": "address",
          "name": "_to",
          "type": "address"
        },
        {
          "internalType": "uint256",
          "name": "_amount",
          "type": "uint256"
        }
      ],
      "name": "safeTransfer",
      "outputs": [],
      "stateMutability": "nonpayable",
      "type": "function"
    },
    {
      "inputs": [
        {
          "internalType": "address",
          "name": "_addr",
          "type": "address"
        }
      ],
      "name": "balanceOf",
      "outputs": [
        {
          "internalType": "uint256",
          "name": "",
          "type": "uint256"
        }
      ],
      "stateMutability": "view",
      "type": "function"
    },
    {
      "inputs": [
        {
          "internalType": "address",
          "name": "_to",
          "type": "address"
        },
        {
          "internalType": "uint256",
          "name": "_amount",
          "type": "uint256"
        }
      ],
      "name": "test",
      "outputs": [
        {
          "internalType": "address",
          "name": "",
          "type": "address"
        },
        {
          "internalType": "uint256",
          "name": "",
          "type": "uint256"
        }
      ],
      "stateMutability": "pure",
      "type": "function"
    }
  ],
  "bytecode": "0x608060405234801561001057600080fd5b50620186a0600081905550600054600160008073ffffffffffffffffffffffffffffffffffffffff1673ffffffffffffffffffffffffffffffffffffffff168152602001908152602001600020819055506108c6806100706000396000f3fe608060405234801561001057600080fd5b50600436106100575760003560e01c806370a082311461005c578063a9059cbb1461008c578063ba14d606146100bc578063d1660f99146100ed578063e4849b3214610109575b600080fd5b610076600480360381019061007191906105ce565b610139565b6040516100839190610752565b60405180910390f35b6100a660048036038101906100a19190610646565b610182565b6040516100b391906106c9565b60405180910390f35b6100d660048036038101906100d19190610646565b6102fa565b6040516100e49291906106e4565b60405180910390f35b610107600480360381019061010291906105f7565b61030a565b005b610123600480360381019061011e9190610682565b610476565b60405161013091906106c9565b60405180910390f35b6000600160008373ffffffffffffffffffffffffffffffffffffffff1673ffffffffffffffffffffffffffffffffffffffff168152602001908152602001600020549050919050565b600081600160003373ffffffffffffffffffffffffffffffffffffffff1673ffffffffffffffffffffffffffffffffffffffff16815260200190815260200160002060008282546101d391906107c3565b9250508190555081600160008573ffffffffffffffffffffffffffffffffffffffff1673ffffffffffffffffffffffffffffffffffffffff1681526020019081526020016000206000828254610229919061076d565b925050819055507f2bc6cfa90e9c9ca69a7a281d876ef2244b8d5201da959f82a292c994843bc09c33600160003373ffffffffffffffffffffffffffffffffffffffff1673ffffffffffffffffffffffffffffffffffffffff1681526020019081526020016000205485600160008873ffffffffffffffffffffffffffffffffffffffff1673ffffffffffffffffffffffffffffffffffffffff168152602001908152602001600020546040516102e3949392919061070d565b60405180910390a160003390508091505092915050565b6000808383915091509250929050565b80600160008573ffffffffffffffffffffffffffffffffffffffff1673ffffffffffffffffffffffffffffffffffffffff168152602001908152602001600020600082825461035991906107c3565b9250508190555080600160008473ffffffffffffffffffffffffffffffffffffffff1673ffffffffffffffffffffffffffffffffffffffff16815260200190815260200160002060008282546103af919061076d565b925050819055507f9ec7d574c5a32e1956386799218d5f4835f693dd5433ca95df03da7e292eac6483600160008673ffffffffffffffffffffffffffffffffffffffff1673ffffffffffffffffffffffffffffffffffffffff1681526020019081526020016000205484600160008773ffffffffffffffffffffffffffffffffffffffff1673ffffffffffffffffffffffffffffffffffffffff16815260200190815260200160002054604051610469949392919061070d565b60405180910390a1505050565b600081600160008073ffffffffffffffffffffffffffffffffffffffff1673ffffffffffffffffffffffffffffffffffffffff16815260200190815260200160002060008282546104c791906107c3565b9250508190555081600160003373ffffffffffffffffffffffffffffffffffffffff1673ffffffffffffffffffffffffffffffffffffffff168152602001908152602001600020600082825461051d919061076d565b925050819055507fae92ab4b6f8f401ead768d3273e6bb937a13e39827d19c6376e8fd4512a05d9a33600160003373ffffffffffffffffffffffffffffffffffffffff1673ffffffffffffffffffffffffffffffffffffffff168152602001908152602001600020546040516105949291906106e4565b60405180910390a1339050919050565b6000813590506105b381610862565b92915050565b6000813590506105c881610879565b92915050565b6000602082840312156105e057600080fd5b60006105ee848285016105a4565b91505092915050565b60008060006060848603121561060c57600080fd5b600061061a868287016105a4565b935050602061062b868287016105a4565b925050604061063c868287016105b9565b9150509250925092565b6000806040838503121561065957600080fd5b6000610667858286016105a4565b9250506020610678858286016105b9565b9150509250929050565b60006020828403121561069457600080fd5b60006106a2848285016105b9565b91505092915050565b6106b4816107f7565b82525050565b6106c381610829565b82525050565b60006020820190506106de60008301846106ab565b92915050565b60006040820190506106f960008301856106ab565b61070660208301846106ba565b9392505050565b600060808201905061072260008301876106ab565b61072f60208301866106ba565b61073c60408301856106ab565b61074960608301846106ba565b95945050505050565b600060208201905061076760008301846106ba565b92915050565b600061077882610829565b915061078383610829565b9250827fffffffffffffffffffffffffffffffffffffffffffffffffffffffffffffffff038211156107b8576107b7610833565b5b828201905092915050565b60006107ce82610829565b91506107d983610829565b9250828210156107ec576107eb610833565b5b828203905092915050565b600061080282610809565b9050919050565b600073ffffffffffffffffffffffffffffffffffffffff82169050919050565b6000819050919050565b7f4e487b7100000000000000000000000000000000000000000000000000000000600052601160045260246000fd5b61086b816107f7565b811461087657600080fd5b50565b61088281610829565b811461088d57600080fd5b5056fea2646970667358221220bc4f051c6c66e8b4c332defc3920184133ee34c1b1230a5ab9799c090be5c3b164736f6c63430008040033",
  "immutableReferences": {},
  "source": "// SPDX-License-Identifier: MIT\npragma solidity ^0.8.0;\n\ncontract FakeUsdc {\n    uint _total;\n    mapping(address => uint) _balance;\n\n    event Sold(address _receiver, uint _balance);\n    event Transfered(address _from, uint from_balance, address _to, uint to_balance);\n    event SafeTransfered(address _from, uint from_balance, address _to, uint to_balance);\n    constructor() {\n        _total = 100000;\n        _balance[address(0)] = _total;\n    }\n    function sell(uint _amount) public returns (address) {\n        _balance[address(0)] -= _amount;\n        _balance[msg.sender] += _amount;\n        emit Sold(msg.sender, _balance[msg.sender]);\n        return msg.sender;\n    }\n    function transfer(address _to, uint _amount) public returns(address) {\n        _balance[msg.sender] -= _amount;\n        _balance[_to] += _amount;\n        emit Transfered(msg.sender, _balance[msg.sender], _to, _balance[_to]);\n        address temp = msg.sender;\n        return temp;\n    }\n    function safeTransfer (address _from, address _to, uint _amount) public{\n        _balance[_from] -= _amount;\n        _balance[_to] += _amount;\n        emit SafeTransfered(_from, _balance[_from], _to, _balance[_to]);\n    }\n    function balanceOf(address _addr) public view returns(uint) {\n        return _balance[_addr];\n    }\n\n    function test(address _to, uint _amount) public pure returns(address, uint) {\n        return (_to, _amount);\n    }\n}",
  "sourcePath": "/home/oncemore/BlockchainWork/usdc_bridge/contracts/FakeUsdc.sol",
  "compiler": {
    "name": "solc",
    "version": "0.8.4+commit.c7e474f2.Emscripten.clang"
  },
  "schemaVersion": "3.3.4",
  "updatedAt": "2021-05-31T02:59:18.045Z",
  "devdoc": {
    "kind": "dev",
    "methods": {},
    "version": 1
  },
  "userdoc": {
    "kind": "user",
    "methods": {},
    "version": 1
  }
}