{
  "contractName": "FakeUsdc",
  "abi": [
    {
      "inputs": [],
      "stateMutability": "nonpayable",
      "type": "constructor"
    },
    {
      "anonymous": false,
      "inputs": [
        {
          "indexed": false,
          "internalType": "address",
          "name": "_from",
          "type": "address"
        },
        {
          "indexed": false,
          "internalType": "uint256",
          "name": "from_balance",
          "type": "uint256"
        },
        {
          "indexed": false,
          "internalType": "address",
          "name": "_to",
          "type": "address"
        },
        {
          "indexed": false,
          "internalType": "uint256",
          "name": "to_balance",
          "type": "uint256"
        }
      ],
      "name": "SafeTransfered",
      "type": "event"
    },
    {
      "anonymous": false,
      "inputs": [
        {
          "indexed": false,
          "internalType": "address",
          "name": "_receiver",
          "type": "address"
        },
        {
          "indexed": false,
          "internalType": "uint256",
          "name": "_balance",
          "type": "uint256"
        }
      ],
      "name": "Sold",
      "type": "event"
    },
    {
      "anonymous": false,
      "inputs": [
        {
          "indexed": false,
          "internalType": "address",
          "name": "_from",
          "type": "address"
        },
        {
          "indexed": false,
          "internalType": "uint256",
          "name": "from_balance",
          "type": "uint256"
        },
        {
          "indexed": false,
          "internalType": "address",
          "name": "_to",
          "type": "address"
        },
        {
          "indexed": false,
          "internalType": "uint256",
          "name": "to_balance",
          "type": "uint256"
        }
      ],
      "name": "Transfered",
      "type": "event"
    },
    {
      "inputs": [
        {
          "internalType": "uint256",
          "name": "_amount",
          "type": "uint256"
        }
      ],
      "name": "sell",
      "outputs": [
        {
          "internalType": "address",
          "name": "",
          "type": "address"
        }
      ],
      "stateMutability": "nonpayable",
      "type": "function"
    },
    {
      "inputs": [
        {
          "internalType": "address",
          "name": "_to",
          "type": "address"
        },
        {
          "internalType": "uint256",
          "name": "_amount",
          "type": "uint256"
        }
      ],
      "name": "transfer",
      "outputs": [
        {
          "internalType": "bool",
          "name": "",
          "type": "bool"
        }
      ],
      "stateMutability": "nonpayable",
      "type": "function"
    },
    {
      "inputs": [
        {
          "internalType": "address",
          "name": "_from",
          "type": "address"
        },
        {
          "internalType": "address",
          "name": "_to",
          "type": "address"
        },
        {
          "internalType": "uint256",
          "name": "_amount",
          "type": "uint256"
        }
      ],
      "name": "safeTransfer",
      "outputs": [
        {
          "internalType": "bool",
          "name": "",
          "type": "bool"
        }
      ],
      "stateMutability": "nonpayable",
      "type": "function"
    },
    {
      "inputs": [
        {
          "internalType": "address",
          "name": "_addr",
          "type": "address"
        }
      ],
      "name": "balanceOf",
      "outputs": [
        {
          "internalType": "uint256",
          "name": "",
          "type": "uint256"
        }
      ],
      "stateMutability": "view",
      "type": "function",
      "constant": true
    }
  ],
  "bytecode": "0x608060405234801561001057600080fd5b50620186a0600081905550600054600160008073ffffffffffffffffffffffffffffffffffffffff1673ffffffffffffffffffffffffffffffffffffffff168152602001908152602001600020819055506108c7806100706000396000f3fe608060405234801561001057600080fd5b506004361061004c5760003560e01c806370a0823114610051578063a9059cbb14610081578063d1660f99146100b1578063e4849b32146100e1575b600080fd5b61006b60048036038101906100669190610599565b610111565b6040516100789190610747565b60405180910390f35b61009b60048036038101906100969190610611565b61015a565b6040516100a8919061072c565b60405180910390f35b6100cb60048036038101906100c691906105c2565b6102cd565b6040516100d8919061072c565b60405180910390f35b6100fb60048036038101906100f6919061064d565b610441565b60405161010891906106a3565b60405180910390f35b6000600160008373ffffffffffffffffffffffffffffffffffffffff1673ffffffffffffffffffffffffffffffffffffffff168152602001908152602001600020549050919050565b600081600160003373ffffffffffffffffffffffffffffffffffffffff1673ffffffffffffffffffffffffffffffffffffffff16815260200190815260200160002060008282546101ab91906107b8565b9250508190555081600160008573ffffffffffffffffffffffffffffffffffffffff1673ffffffffffffffffffffffffffffffffffffffff16815260200190815260200160002060008282546102019190610762565b925050819055507f2bc6cfa90e9c9ca69a7a281d876ef2244b8d5201da959f82a292c994843bc09c33600160003373ffffffffffffffffffffffffffffffffffffffff1673ffffffffffffffffffffffffffffffffffffffff1681526020019081526020016000205485600160008873ffffffffffffffffffffffffffffffffffffffff1673ffffffffffffffffffffffffffffffffffffffff168152602001908152602001600020546040516102bb94939291906106e7565b60405180910390a16001905092915050565b600081600160008673ffffffffffffffffffffffffffffffffffffffff1673ffffffffffffffffffffffffffffffffffffffff168152602001908152602001600020600082825461031e91906107b8565b9250508190555081600160008573ffffffffffffffffffffffffffffffffffffffff1673ffffffffffffffffffffffffffffffffffffffff16815260200190815260200160002060008282546103749190610762565b925050819055507f9ec7d574c5a32e1956386799218d5f4835f693dd5433ca95df03da7e292eac6484600160008773ffffffffffffffffffffffffffffffffffffffff1673ffffffffffffffffffffffffffffffffffffffff1681526020019081526020016000205485600160008873ffffffffffffffffffffffffffffffffffffffff1673ffffffffffffffffffffffffffffffffffffffff1681526020019081526020016000205460405161042e94939291906106e7565b60405180910390a1600190509392505050565b600081600160008073ffffffffffffffffffffffffffffffffffffffff1673ffffffffffffffffffffffffffffffffffffffff168152602001908152602001600020600082825461049291906107b8565b9250508190555081600160003373ffffffffffffffffffffffffffffffffffffffff1673ffffffffffffffffffffffffffffffffffffffff16815260200190815260200160002060008282546104e89190610762565b925050819055507fae92ab4b6f8f401ead768d3273e6bb937a13e39827d19c6376e8fd4512a05d9a33600160003373ffffffffffffffffffffffffffffffffffffffff1673ffffffffffffffffffffffffffffffffffffffff1681526020019081526020016000205460405161055f9291906106be565b60405180910390a1339050919050565b60008135905061057e81610863565b92915050565b6000813590506105938161087a565b92915050565b6000602082840312156105ab57600080fd5b60006105b98482850161056f565b91505092915050565b6000806000606084860312156105d757600080fd5b60006105e58682870161056f565b93505060206105f68682870161056f565b925050604061060786828701610584565b9150509250925092565b6000806040838503121561062457600080fd5b60006106328582860161056f565b925050602061064385828601610584565b9150509250929050565b60006020828403121561065f57600080fd5b600061066d84828501610584565b91505092915050565b61067f816107ec565b82525050565b61068e816107fe565b82525050565b61069d8161082a565b82525050565b60006020820190506106b86000830184610676565b92915050565b60006040820190506106d36000830185610676565b6106e06020830184610694565b9392505050565b60006080820190506106fc6000830187610676565b6107096020830186610694565b6107166040830185610676565b6107236060830184610694565b95945050505050565b60006020820190506107416000830184610685565b92915050565b600060208201905061075c6000830184610694565b92915050565b600061076d8261082a565b91506107788361082a565b9250827fffffffffffffffffffffffffffffffffffffffffffffffffffffffffffffffff038211156107ad576107ac610834565b5b828201905092915050565b60006107c38261082a565b91506107ce8361082a565b9250828210156107e1576107e0610834565b5b828203905092915050565b60006107f78261080a565b9050919050565b60008115159050919050565b600073ffffffffffffffffffffffffffffffffffffffff82169050919050565b6000819050919050565b7f4e487b7100000000000000000000000000000000000000000000000000000000600052601160045260246000fd5b61086c816107ec565b811461087757600080fd5b50565b6108838161082a565b811461088e57600080fd5b5056fea2646970667358221220820e0afa0b86210210708e4c729ca9105c06f9017df94ae0e63d7886a85dbf0c64736f6c63430008040033",
  "immutableReferences": {},
  "source": "// SPDX-License-Identifier: MIT\npragma solidity ^0.8.0;\n\ncontract FakeUsdc {\n    uint _total;\n    mapping(address => uint) _balance;\n\n    event Sold(address _receiver, uint _balance);\n    event Transfered(address _from, uint from_balance, address _to, uint to_balance);\n    event SafeTransfered(address _from, uint from_balance, address _to, uint to_balance);\n    constructor() {\n        _total = 100000;\n        _balance[address(0)] = _total;\n    }\n    function sell(uint _amount) public returns (address) {\n        _balance[address(0)] -= _amount;\n        _balance[msg.sender] += _amount;\n        emit Sold(msg.sender, _balance[msg.sender]);\n        return msg.sender;\n    }\n    function transfer(address _to, uint _amount) public returns(bool) {\n        _balance[msg.sender] -= _amount;\n        _balance[_to] += _amount;\n        emit Transfered(msg.sender, _balance[msg.sender], _to, _balance[_to]);\n        return true;\n    }\n    function safeTransfer (address _from, address _to, uint _amount) public returns (bool) {\n        _balance[_from] -= _amount;\n        _balance[_to] += _amount;\n        emit SafeTransfered(_from, _balance[_from], _to, _balance[_to]);\n        return true;\n    }\n    function balanceOf(address _addr) public view returns(uint) {\n        return _balance[_addr];\n    }\n}",
  "sourcePath": "/home/oncemore/BlockchainWork/usdc_bridge/contracts/FakeUsdc.sol",
  "compiler": {
    "name": "solc",
    "version": "0.8.4+commit.c7e474f2.Emscripten.clang"
  },
  "schemaVersion": "3.3.4",
  "updatedAt": "2021-05-28T16:25:42.948Z",
  "networkType": "ethereum",
  "devdoc": {
    "kind": "dev",
    "methods": {},
    "version": 1
  },
  "userdoc": {
    "kind": "user",
    "methods": {},
    "version": 1
  }
}