{
  "contractName": "FakeUSDC",
  "abi": [
    {
      "inputs": [],
      "stateMutability": "nonpayable",
      "type": "constructor"
    },
    {
      "anonymous": false,
      "inputs": [
        {
          "indexed": true,
          "internalType": "address",
          "name": "from",
          "type": "address"
        },
        {
          "indexed": true,
          "internalType": "address",
          "name": "to",
          "type": "address"
        },
        {
          "indexed": false,
          "internalType": "uint256",
          "name": "tokens",
          "type": "uint256"
        }
      ],
      "name": "Transfer",
      "type": "event"
    },
    {
      "inputs": [
        {
          "internalType": "address",
          "name": "_receiver",
          "type": "address"
        },
        {
          "internalType": "uint256",
          "name": "_amount",
          "type": "uint256"
        }
      ],
      "name": "transfer",
      "outputs": [
        {
          "internalType": "bool",
          "name": "",
          "type": "bool"
        }
      ],
      "stateMutability": "nonpayable",
      "type": "function"
    },
    {
      "inputs": [
        {
          "internalType": "address",
          "name": "_sender",
          "type": "address"
        },
        {
          "internalType": "uint256",
          "name": "_amount",
          "type": "uint256"
        }
      ],
      "name": "withdraw",
      "outputs": [
        {
          "internalType": "bool",
          "name": "",
          "type": "bool"
        }
      ],
      "stateMutability": "nonpayable",
      "type": "function"
    },
    {
      "inputs": [
        {
          "internalType": "address",
          "name": "_tokenOwner",
          "type": "address"
        }
      ],
      "name": "balanceOf",
      "outputs": [
        {
          "internalType": "uint256",
          "name": "",
          "type": "uint256"
        }
      ],
      "stateMutability": "view",
      "type": "function",
      "constant": true
    }
  ],
  "bytecode": "0x608060405234801561001057600080fd5b50336000806101000a81548173ffffffffffffffffffffffffffffffffffffffff021916908373ffffffffffffffffffffffffffffffffffffffff160217905550612710600281905550600254600160003373ffffffffffffffffffffffffffffffffffffffff1673ffffffffffffffffffffffffffffffffffffffff168152602001908152602001600020819055506105a1806100af6000396000f3fe608060405234801561001057600080fd5b50600436106100415760003560e01c806370a0823114610046578063a9059cbb14610076578063f3fef3a3146100a6575b600080fd5b610060600480360381019061005b9190610383565b6100d6565b60405161006d9190610421565b60405180910390f35b610090600480360381019061008b91906103ac565b61011f565b60405161009d9190610406565b60405180910390f35b6100c060048036038101906100bb91906103ac565b61023c565b6040516100cd9190610406565b60405180910390f35b6000600160008373ffffffffffffffffffffffffffffffffffffffff1673ffffffffffffffffffffffffffffffffffffffff168152602001908152602001600020549050919050565b600081600160003373ffffffffffffffffffffffffffffffffffffffff1673ffffffffffffffffffffffffffffffffffffffff16815260200190815260200160002060008282546101709190610492565b9250508190555081600160008573ffffffffffffffffffffffffffffffffffffffff1673ffffffffffffffffffffffffffffffffffffffff16815260200190815260200160002060008282546101c6919061043c565b925050819055508273ffffffffffffffffffffffffffffffffffffffff163373ffffffffffffffffffffffffffffffffffffffff167fddf252ad1be2c89b69c2b068fc378daa952ba7f163c4a11628f55a4df523b3ef8460405161022a9190610421565b60405180910390a36001905092915050565b600081600160003373ffffffffffffffffffffffffffffffffffffffff1673ffffffffffffffffffffffffffffffffffffffff168152602001908152602001600020600082825461028d919061043c565b9250508190555081600160008573ffffffffffffffffffffffffffffffffffffffff1673ffffffffffffffffffffffffffffffffffffffff16815260200190815260200160002060008282546102e39190610492565b925050819055503373ffffffffffffffffffffffffffffffffffffffff168373ffffffffffffffffffffffffffffffffffffffff167fddf252ad1be2c89b69c2b068fc378daa952ba7f163c4a11628f55a4df523b3ef846040516103479190610421565b60405180910390a36001905092915050565b6000813590506103688161053d565b92915050565b60008135905061037d81610554565b92915050565b60006020828403121561039557600080fd5b60006103a384828501610359565b91505092915050565b600080604083850312156103bf57600080fd5b60006103cd85828601610359565b92505060206103de8582860161036e565b9150509250929050565b6103f1816104d8565b82525050565b61040081610504565b82525050565b600060208201905061041b60008301846103e8565b92915050565b600060208201905061043660008301846103f7565b92915050565b600061044782610504565b915061045283610504565b9250827fffffffffffffffffffffffffffffffffffffffffffffffffffffffffffffffff038211156104875761048661050e565b5b828201905092915050565b600061049d82610504565b91506104a883610504565b9250828210156104bb576104ba61050e565b5b828203905092915050565b60006104d1826104e4565b9050919050565b60008115159050919050565b600073ffffffffffffffffffffffffffffffffffffffff82169050919050565b6000819050919050565b7f4e487b7100000000000000000000000000000000000000000000000000000000600052601160045260246000fd5b610546816104c6565b811461055157600080fd5b50565b61055d81610504565b811461056857600080fd5b5056fea264697066735822122020709c81db8612f34c53f71bd268c0bf8078a1c7621707be3989b72530f4d6d964736f6c63430008040033",
  "immutableReferences": {},
  "source": "// SPDX-License-Identifier: MIT\npragma solidity ^0.8.0;\n\nimport \"@openzeppelin/contracts/token/ERC20/ERC20.sol\";\n\ncontract FakeUSDC {\n    address owner;\n    mapping(address => uint) balances;\n    uint _totalSupply;\n\n    event Transfer(address indexed from, address indexed to, uint tokens);\n\n    constructor() {\n        owner = msg.sender;\n        _totalSupply = 10000;\n        balances[msg.sender] = _totalSupply;\n    }\n    modifier onlyOwner {\n        require(msg.sender == owner);\n        _;\n    }\n    function transfer(address _receiver, uint _amount) public returns (bool) {\n        balances[msg.sender] -= _amount;\n        balances[_receiver] += _amount;\n        emit Transfer(msg.sender, _receiver, _amount);\n        return true;\n    }\n\n    function withdraw (address _sender, uint _amount) public returns (bool) {\n        balances[msg.sender] += _amount;\n        balances[_sender] -= _amount;\n        emit Transfer(_sender, msg.sender, _amount);\n        return true;\n    }\n\n    function balanceOf (address _tokenOwner) public view returns (uint) {\n        return balances[_tokenOwner];\n    }\n}",
  "sourcePath": "/home/oncemore/BlockchainWork/usdc_bridge/contracts/FakeUSDC.sol",
  "compiler": {
    "name": "solc",
    "version": "0.8.4+commit.c7e474f2.Emscripten.clang"
  },
  "schemaVersion": "3.3.4",
  "updatedAt": "2021-05-27T18:38:15.974Z",
  "networkType": "ethereum",
  "devdoc": {
    "kind": "dev",
    "methods": {},
    "version": 1
  },
  "userdoc": {
    "kind": "user",
    "methods": {},
    "version": 1
  }
}