{
  "contractName": "PolBridge",
  "abi": [
    {
      "anonymous": false,
      "inputs": [
        {
          "indexed": false,
          "internalType": "address",
          "name": "_depositer",
          "type": "address"
        },
        {
          "indexed": false,
          "internalType": "uint256",
          "name": "_amount",
          "type": "uint256"
        }
      ],
      "name": "Deposited",
      "type": "event"
    },
    {
      "anonymous": false,
      "inputs": [
        {
          "indexed": false,
          "internalType": "uint256",
          "name": "_balance",
          "type": "uint256"
        }
      ],
      "name": "Reserved",
      "type": "event"
    },
    {
      "anonymous": false,
      "inputs": [
        {
          "indexed": false,
          "internalType": "uint256",
          "name": "a",
          "type": "uint256"
        },
        {
          "indexed": false,
          "internalType": "uint256",
          "name": "b",
          "type": "uint256"
        }
      ],
      "name": "TestEvent",
      "type": "event"
    },
    {
      "anonymous": false,
      "inputs": [
        {
          "indexed": false,
          "internalType": "address",
          "name": "_withdrawer",
          "type": "address"
        },
        {
          "indexed": false,
          "internalType": "uint256",
          "name": "_amount",
          "type": "uint256"
        }
      ],
      "name": "Withdrawed",
      "type": "event"
    },
    {
      "inputs": [
        {
          "internalType": "uint256",
          "name": "_amount",
          "type": "uint256"
        }
      ],
      "name": "calc_fee",
      "outputs": [
        {
          "internalType": "uint256",
          "name": "",
          "type": "uint256"
        }
      ],
      "stateMutability": "pure",
      "type": "function"
    },
    {
      "inputs": [],
      "name": "test",
      "outputs": [
        {
          "internalType": "bool",
          "name": "",
          "type": "bool"
        }
      ],
      "stateMutability": "payable",
      "type": "function"
    },
    {
      "inputs": [
        {
          "internalType": "uint256",
          "name": "_amount",
          "type": "uint256"
        }
      ],
      "name": "deposit",
      "outputs": [
        {
          "internalType": "bool",
          "name": "",
          "type": "bool"
        }
      ],
      "stateMutability": "nonpayable",
      "type": "function"
    },
    {
      "inputs": [
        {
          "internalType": "uint256",
          "name": "_amount",
          "type": "uint256"
        }
      ],
      "name": "withdraw",
      "outputs": [
        {
          "internalType": "bool",
          "name": "",
          "type": "bool"
        }
      ],
      "stateMutability": "nonpayable",
      "type": "function"
    },
    {
      "inputs": [
        {
          "internalType": "uint256",
          "name": "_amount",
          "type": "uint256"
        }
      ],
      "name": "set_reservation",
      "outputs": [
        {
          "internalType": "bool",
          "name": "",
          "type": "bool"
        }
      ],
      "stateMutability": "nonpayable",
      "type": "function"
    },
    {
      "inputs": [],
      "name": "get_reservation",
      "outputs": [
        {
          "internalType": "uint256",
          "name": "",
          "type": "uint256"
        }
      ],
      "stateMutability": "view",
      "type": "function"
    }
  ],
  "bytecode": "0x60806040526040516100109061007f565b604051809103906000f08015801561002c573d6000803e3d6000fd5b50600160006101000a81548173ffffffffffffffffffffffffffffffffffffffff021916908373ffffffffffffffffffffffffffffffffffffffff16021790555034801561007957600080fd5b5061008c565b6109368061082b83390190565b6107908061009b6000396000f3fe6080604052600436106100555760003560e01c80632e1a7d4d1461005a578063405ee1de1461009757806378908221146100d4578063ae7e0a7d146100ff578063b6b55f251461013c578063f8a8fd6d14610179575b600080fd5b34801561006657600080fd5b50610081600480360381019061007c91906104b9565b610197565b60405161008e919061056f565b60405180910390f35b3480156100a357600080fd5b506100be60048036038101906100b991906104b9565b610246565b6040516100cb919061056f565b60405180910390f35b3480156100e057600080fd5b506100e9610352565b6040516100f6919061058a565b60405180910390f35b34801561010b57600080fd5b50610126600480360381019061012191906104b9565b61035b565b604051610133919061058a565b60405180910390f35b34801561014857600080fd5b50610163600480360381019061015e91906104b9565b61038c565b604051610170919061056f565b60405180910390f35b610181610461565b60405161018e919061056f565b60405180910390f35b6000600160009054906101000a900473ffffffffffffffffffffffffffffffffffffffff1673ffffffffffffffffffffffffffffffffffffffff1663d1660f9930336101e28661035b565b866101ed91906105a5565b6040518463ffffffff1660e01b815260040161020b9392919061050f565b600060405180830381600087803b15801561022557600080fd5b505af1158015610239573d6000803e3d6000fd5b5050505060019050919050565b6000600160009054906101000a900473ffffffffffffffffffffffffffffffffffffffff1673ffffffffffffffffffffffffffffffffffffffff1663a9059cbb30846040518363ffffffff1660e01b81526004016102a5929190610546565b602060405180830381600087803b1580156102bf57600080fd5b505af11580156102d3573d6000803e3d6000fd5b505050506040513d601f19601f820116820180604052508101906102f79190610490565b508160008082825461030991906105a5565b925050819055507f672216a7a59f7b075c6becc0eebb0ab5404d392281d509c1c1a4a6accd036f49600054604051610341919061058a565b60405180910390a160019050919050565b60008054905090565b60006127106004620f424084610371919061062c565b61037b919061062c565b61038591906105fb565b9050919050565b6000600160009054906101000a900473ffffffffffffffffffffffffffffffffffffffff1673ffffffffffffffffffffffffffffffffffffffff1663d1660f993330856040518463ffffffff1660e01b81526004016103ed9392919061050f565b600060405180830381600087803b15801561040757600080fd5b505af115801561041b573d6000803e3d6000fd5b505050507f2da466a7b24304f47e87fa2e1e5a81b9831ce54fec19055ce277ca2f39ba42c43383604051610450929190610546565b60405180910390a160019050919050565b600090565b6000815190506104758161072c565b92915050565b60008135905061048a81610743565b92915050565b6000602082840312156104a257600080fd5b60006104b084828501610466565b91505092915050565b6000602082840312156104cb57600080fd5b60006104d98482850161047b565b91505092915050565b6104eb81610686565b82525050565b6104fa81610698565b82525050565b610509816106c4565b82525050565b600060608201905061052460008301866104e2565b61053160208301856104e2565b61053e6040830184610500565b949350505050565b600060408201905061055b60008301856104e2565b6105686020830184610500565b9392505050565b600060208201905061058460008301846104f1565b92915050565b600060208201905061059f6000830184610500565b92915050565b60006105b0826106c4565b91506105bb836106c4565b9250827fffffffffffffffffffffffffffffffffffffffffffffffffffffffffffffffff038211156105f0576105ef6106ce565b5b828201905092915050565b6000610606826106c4565b9150610611836106c4565b925082610621576106206106fd565b5b828204905092915050565b6000610637826106c4565b9150610642836106c4565b9250817fffffffffffffffffffffffffffffffffffffffffffffffffffffffffffffffff048311821515161561067b5761067a6106ce565b5b828202905092915050565b6000610691826106a4565b9050919050565b60008115159050919050565b600073ffffffffffffffffffffffffffffffffffffffff82169050919050565b6000819050919050565b7f4e487b7100000000000000000000000000000000000000000000000000000000600052601160045260246000fd5b7f4e487b7100000000000000000000000000000000000000000000000000000000600052601260045260246000fd5b61073581610686565b811461074057600080fd5b50565b61074c816106c4565b811461075757600080fd5b5056fea26469706673582212201dd3bdedcf9a7f5219bbf618f90955ea0c1569ae14afe9dbd8a92c1091ab23cc64736f6c63430008040033608060405234801561001057600080fd5b50620186a0600081905550600054600160008073ffffffffffffffffffffffffffffffffffffffff1673ffffffffffffffffffffffffffffffffffffffff168152602001908152602001600020819055506108c6806100706000396000f3fe608060405234801561001057600080fd5b50600436106100575760003560e01c806370a082311461005c578063a9059cbb1461008c578063ba14d606146100bc578063d1660f99146100ed578063e4849b3214610109575b600080fd5b610076600480360381019061007191906105ce565b610139565b6040516100839190610752565b60405180910390f35b6100a660048036038101906100a19190610646565b610182565b6040516100b391906106c9565b60405180910390f35b6100d660048036038101906100d19190610646565b6102fa565b6040516100e49291906106e4565b60405180910390f35b610107600480360381019061010291906105f7565b61030a565b005b610123600480360381019061011e9190610682565b610476565b60405161013091906106c9565b60405180910390f35b6000600160008373ffffffffffffffffffffffffffffffffffffffff1673ffffffffffffffffffffffffffffffffffffffff168152602001908152602001600020549050919050565b600081600160003373ffffffffffffffffffffffffffffffffffffffff1673ffffffffffffffffffffffffffffffffffffffff16815260200190815260200160002060008282546101d391906107c3565b9250508190555081600160008573ffffffffffffffffffffffffffffffffffffffff1673ffffffffffffffffffffffffffffffffffffffff1681526020019081526020016000206000828254610229919061076d565b925050819055507f2bc6cfa90e9c9ca69a7a281d876ef2244b8d5201da959f82a292c994843bc09c33600160003373ffffffffffffffffffffffffffffffffffffffff1673ffffffffffffffffffffffffffffffffffffffff1681526020019081526020016000205485600160008873ffffffffffffffffffffffffffffffffffffffff1673ffffffffffffffffffffffffffffffffffffffff168152602001908152602001600020546040516102e3949392919061070d565b60405180910390a160003390508091505092915050565b6000808383915091509250929050565b80600160008573ffffffffffffffffffffffffffffffffffffffff1673ffffffffffffffffffffffffffffffffffffffff168152602001908152602001600020600082825461035991906107c3565b9250508190555080600160008473ffffffffffffffffffffffffffffffffffffffff1673ffffffffffffffffffffffffffffffffffffffff16815260200190815260200160002060008282546103af919061076d565b925050819055507f9ec7d574c5a32e1956386799218d5f4835f693dd5433ca95df03da7e292eac6483600160008673ffffffffffffffffffffffffffffffffffffffff1673ffffffffffffffffffffffffffffffffffffffff1681526020019081526020016000205484600160008773ffffffffffffffffffffffffffffffffffffffff1673ffffffffffffffffffffffffffffffffffffffff16815260200190815260200160002054604051610469949392919061070d565b60405180910390a1505050565b600081600160008073ffffffffffffffffffffffffffffffffffffffff1673ffffffffffffffffffffffffffffffffffffffff16815260200190815260200160002060008282546104c791906107c3565b9250508190555081600160003373ffffffffffffffffffffffffffffffffffffffff1673ffffffffffffffffffffffffffffffffffffffff168152602001908152602001600020600082825461051d919061076d565b925050819055507fae92ab4b6f8f401ead768d3273e6bb937a13e39827d19c6376e8fd4512a05d9a33600160003373ffffffffffffffffffffffffffffffffffffffff1673ffffffffffffffffffffffffffffffffffffffff168152602001908152602001600020546040516105949291906106e4565b60405180910390a1339050919050565b6000813590506105b381610862565b92915050565b6000813590506105c881610879565b92915050565b6000602082840312156105e057600080fd5b60006105ee848285016105a4565b91505092915050565b60008060006060848603121561060c57600080fd5b600061061a868287016105a4565b935050602061062b868287016105a4565b925050604061063c868287016105b9565b9150509250925092565b6000806040838503121561065957600080fd5b6000610667858286016105a4565b9250506020610678858286016105b9565b9150509250929050565b60006020828403121561069457600080fd5b60006106a2848285016105b9565b91505092915050565b6106b4816107f7565b82525050565b6106c381610829565b82525050565b60006020820190506106de60008301846106ab565b92915050565b60006040820190506106f960008301856106ab565b61070660208301846106ba565b9392505050565b600060808201905061072260008301876106ab565b61072f60208301866106ba565b61073c60408301856106ab565b61074960608301846106ba565b95945050505050565b600060208201905061076760008301846106ba565b92915050565b600061077882610829565b915061078383610829565b9250827fffffffffffffffffffffffffffffffffffffffffffffffffffffffffffffffff038211156107b8576107b7610833565b5b828201905092915050565b60006107ce82610829565b91506107d983610829565b9250828210156107ec576107eb610833565b5b828203905092915050565b600061080282610809565b9050919050565b600073ffffffffffffffffffffffffffffffffffffffff82169050919050565b6000819050919050565b7f4e487b7100000000000000000000000000000000000000000000000000000000600052601160045260246000fd5b61086b816107f7565b811461087657600080fd5b50565b61088281610829565b811461088d57600080fd5b5056fea2646970667358221220bc4f051c6c66e8b4c332defc3920184133ee34c1b1230a5ab9799c090be5c3b164736f6c63430008040033",
  "immutableReferences": {},
  "source": "// SPDX-License-Identifier: MIT\npragma solidity ^0.8.0;\n\nimport './FakeUsdc.sol';\n\ncontract PolBridge {\n    uint _reservation;\n    FakeUsdc usdc = new FakeUsdc();\n    event Deposited (address _depositer, uint _amount);\n    event Withdrawed (address _withdrawer, uint _amount);\n    event Reserved (uint _balance);\n\n    event TestEvent(uint a, uint b);\n    function calc_fee(uint _amount) public pure returns (uint) {\n        return (_amount * 10 ** 6 * 4 / 10000);\n    }\n\n    function test() public payable returns (bool){\n        \n    }\n    function deposit(uint _amount) public returns(bool) {\n        // usdc.transfer(address(this), _amount);\n        usdc.safeTransfer(msg.sender, address(this), _amount);\n\n        emit Deposited(msg.sender, _amount);\n        return true;\n    }\n\n    function withdraw(uint _amount) public returns(bool) {\n        usdc.safeTransfer(address(this), msg.sender, (_amount + calc_fee(_amount)));\n        return true;\n    }\n\n    function set_reservation (uint _amount) public returns (bool) {\n        usdc.transfer(address(this), _amount);\n        _reservation += _amount;\n        emit Reserved( _reservation);\n        return true;\n    }\n\n    function get_reservation () public view returns (uint) {\n        return _reservation;\n    }\n}",
  "sourcePath": "/home/oncemore/BlockchainWork/usdc_bridge/contracts/PolBridge.sol",
  "compiler": {
    "name": "solc",
    "version": "0.8.4+commit.c7e474f2.Emscripten.clang"
  },
  "schemaVersion": "3.3.4",
  "updatedAt": "2021-05-31T02:59:18.062Z",
  "devdoc": {
    "kind": "dev",
    "methods": {},
    "version": 1
  },
  "userdoc": {
    "kind": "user",
    "methods": {},
    "version": 1
  }
}