{
  "contractName": "PolBridge",
  "abi": [
    {
      "inputs": [
        {
          "internalType": "uint256",
          "name": "_amount",
          "type": "uint256"
        }
      ],
      "name": "calc_fee",
      "outputs": [
        {
          "internalType": "uint256",
          "name": "",
          "type": "uint256"
        }
      ],
      "stateMutability": "pure",
      "type": "function"
    },
    {
      "inputs": [
        {
          "internalType": "uint256",
          "name": "_amount",
          "type": "uint256"
        }
      ],
      "name": "deposit",
      "outputs": [
        {
          "internalType": "bool",
          "name": "",
          "type": "bool"
        }
      ],
      "stateMutability": "nonpayable",
      "type": "function"
    },
    {
      "inputs": [
        {
          "internalType": "uint256",
          "name": "_amount",
          "type": "uint256"
        }
      ],
      "name": "withdraw",
      "outputs": [
        {
          "internalType": "bool",
          "name": "",
          "type": "bool"
        }
      ],
      "stateMutability": "nonpayable",
      "type": "function"
    }
  ],
  "bytecode": "0x60806040526040516100109061007f565b604051809103906000f08015801561002c573d6000803e3d6000fd5b50600160006101000a81548173ffffffffffffffffffffffffffffffffffffffff021916908373ffffffffffffffffffffffffffffffffffffffff16021790555034801561007957600080fd5b5061008c565b6109378061065783390190565b6105bc8061009b6000396000f3fe608060405234801561001057600080fd5b50600436106100415760003560e01c80632e1a7d4d14610046578063ae7e0a7d14610076578063b6b55f25146100a6575b600080fd5b610060600480360381019061005b91906102e5565b6100d6565b60405161006d919061039b565b60405180910390f35b610090600480360381019061008b91906102e5565b6101a6565b60405161009d91906103b6565b60405180910390f35b6100c060048036038101906100bb91906102e5565b6101d7565b6040516100cd919061039b565b60405180910390f35b6000600160009054906101000a900473ffffffffffffffffffffffffffffffffffffffff1673ffffffffffffffffffffffffffffffffffffffff1663d1660f993033610121866101a6565b8661012c91906103d1565b6040518463ffffffff1660e01b815260040161014a9392919061033b565b602060405180830381600087803b15801561016457600080fd5b505af1158015610178573d6000803e3d6000fd5b505050506040513d601f19601f8201168201806040525081019061019c91906102bc565b5060019050919050565b6000620f42406127106004846101bc9190610458565b6101c69190610427565b6101d09190610458565b9050919050565b6000600160009054906101000a900473ffffffffffffffffffffffffffffffffffffffff1673ffffffffffffffffffffffffffffffffffffffff1663a9059cbb30846040518363ffffffff1660e01b8152600401610236929190610372565b602060405180830381600087803b15801561025057600080fd5b505af1158015610264573d6000803e3d6000fd5b505050506040513d601f19601f8201168201806040525081019061028891906102bc565b5060019050919050565b6000815190506102a181610558565b92915050565b6000813590506102b68161056f565b92915050565b6000602082840312156102ce57600080fd5b60006102dc84828501610292565b91505092915050565b6000602082840312156102f757600080fd5b6000610305848285016102a7565b91505092915050565b610317816104b2565b82525050565b610326816104c4565b82525050565b610335816104f0565b82525050565b6000606082019050610350600083018661030e565b61035d602083018561030e565b61036a604083018461032c565b949350505050565b6000604082019050610387600083018561030e565b610394602083018461032c565b9392505050565b60006020820190506103b0600083018461031d565b92915050565b60006020820190506103cb600083018461032c565b92915050565b60006103dc826104f0565b91506103e7836104f0565b9250827fffffffffffffffffffffffffffffffffffffffffffffffffffffffffffffffff0382111561041c5761041b6104fa565b5b828201905092915050565b6000610432826104f0565b915061043d836104f0565b92508261044d5761044c610529565b5b828204905092915050565b6000610463826104f0565b915061046e836104f0565b9250817fffffffffffffffffffffffffffffffffffffffffffffffffffffffffffffffff04831182151516156104a7576104a66104fa565b5b828202905092915050565b60006104bd826104d0565b9050919050565b60008115159050919050565b600073ffffffffffffffffffffffffffffffffffffffff82169050919050565b6000819050919050565b7f4e487b7100000000000000000000000000000000000000000000000000000000600052601160045260246000fd5b7f4e487b7100000000000000000000000000000000000000000000000000000000600052601260045260246000fd5b610561816104c4565b811461056c57600080fd5b50565b610578816104f0565b811461058357600080fd5b5056fea2646970667358221220bd569beb9e125b35218ee1036977437046d3bdd0c7eb154d5306f9ec7e1cb2c564736f6c63430008040033608060405234801561001057600080fd5b50620186a0600081905550600054600160008073ffffffffffffffffffffffffffffffffffffffff1673ffffffffffffffffffffffffffffffffffffffff168152602001908152602001600020819055506108c7806100706000396000f3fe608060405234801561001057600080fd5b506004361061004c5760003560e01c806370a0823114610051578063a9059cbb14610081578063d1660f99146100b1578063e4849b32146100e1575b600080fd5b61006b60048036038101906100669190610599565b610111565b6040516100789190610747565b60405180910390f35b61009b60048036038101906100969190610611565b61015a565b6040516100a8919061072c565b60405180910390f35b6100cb60048036038101906100c691906105c2565b6102cd565b6040516100d8919061072c565b60405180910390f35b6100fb60048036038101906100f6919061064d565b610441565b60405161010891906106a3565b60405180910390f35b6000600160008373ffffffffffffffffffffffffffffffffffffffff1673ffffffffffffffffffffffffffffffffffffffff168152602001908152602001600020549050919050565b600081600160003373ffffffffffffffffffffffffffffffffffffffff1673ffffffffffffffffffffffffffffffffffffffff16815260200190815260200160002060008282546101ab91906107b8565b9250508190555081600160008573ffffffffffffffffffffffffffffffffffffffff1673ffffffffffffffffffffffffffffffffffffffff16815260200190815260200160002060008282546102019190610762565b925050819055507f2bc6cfa90e9c9ca69a7a281d876ef2244b8d5201da959f82a292c994843bc09c33600160003373ffffffffffffffffffffffffffffffffffffffff1673ffffffffffffffffffffffffffffffffffffffff1681526020019081526020016000205485600160008873ffffffffffffffffffffffffffffffffffffffff1673ffffffffffffffffffffffffffffffffffffffff168152602001908152602001600020546040516102bb94939291906106e7565b60405180910390a16001905092915050565b600081600160008673ffffffffffffffffffffffffffffffffffffffff1673ffffffffffffffffffffffffffffffffffffffff168152602001908152602001600020600082825461031e91906107b8565b9250508190555081600160008573ffffffffffffffffffffffffffffffffffffffff1673ffffffffffffffffffffffffffffffffffffffff16815260200190815260200160002060008282546103749190610762565b925050819055507f9ec7d574c5a32e1956386799218d5f4835f693dd5433ca95df03da7e292eac6484600160008773ffffffffffffffffffffffffffffffffffffffff1673ffffffffffffffffffffffffffffffffffffffff1681526020019081526020016000205485600160008873ffffffffffffffffffffffffffffffffffffffff1673ffffffffffffffffffffffffffffffffffffffff1681526020019081526020016000205460405161042e94939291906106e7565b60405180910390a1600190509392505050565b600081600160008073ffffffffffffffffffffffffffffffffffffffff1673ffffffffffffffffffffffffffffffffffffffff168152602001908152602001600020600082825461049291906107b8565b9250508190555081600160003373ffffffffffffffffffffffffffffffffffffffff1673ffffffffffffffffffffffffffffffffffffffff16815260200190815260200160002060008282546104e89190610762565b925050819055507fae92ab4b6f8f401ead768d3273e6bb937a13e39827d19c6376e8fd4512a05d9a33600160003373ffffffffffffffffffffffffffffffffffffffff1673ffffffffffffffffffffffffffffffffffffffff1681526020019081526020016000205460405161055f9291906106be565b60405180910390a1339050919050565b60008135905061057e81610863565b92915050565b6000813590506105938161087a565b92915050565b6000602082840312156105ab57600080fd5b60006105b98482850161056f565b91505092915050565b6000806000606084860312156105d757600080fd5b60006105e58682870161056f565b93505060206105f68682870161056f565b925050604061060786828701610584565b9150509250925092565b6000806040838503121561062457600080fd5b60006106328582860161056f565b925050602061064385828601610584565b9150509250929050565b60006020828403121561065f57600080fd5b600061066d84828501610584565b91505092915050565b61067f816107ec565b82525050565b61068e816107fe565b82525050565b61069d8161082a565b82525050565b60006020820190506106b86000830184610676565b92915050565b60006040820190506106d36000830185610676565b6106e06020830184610694565b9392505050565b60006080820190506106fc6000830187610676565b6107096020830186610694565b6107166040830185610676565b6107236060830184610694565b95945050505050565b60006020820190506107416000830184610685565b92915050565b600060208201905061075c6000830184610694565b92915050565b600061076d8261082a565b91506107788361082a565b9250827fffffffffffffffffffffffffffffffffffffffffffffffffffffffffffffffff038211156107ad576107ac610834565b5b828201905092915050565b60006107c38261082a565b91506107ce8361082a565b9250828210156107e1576107e0610834565b5b828203905092915050565b60006107f78261080a565b9050919050565b60008115159050919050565b600073ffffffffffffffffffffffffffffffffffffffff82169050919050565b6000819050919050565b7f4e487b7100000000000000000000000000000000000000000000000000000000600052601160045260246000fd5b61086c816107ec565b811461087757600080fd5b50565b6108838161082a565b811461088e57600080fd5b5056fea2646970667358221220820e0afa0b86210210708e4c729ca9105c06f9017df94ae0e63d7886a85dbf0c64736f6c63430008040033",
  "immutableReferences": {},
  "source": "// SPDX-License-Identifier: MIT\npragma solidity ^0.8.0;\n\nimport './FakeUsdc.sol';\n\ncontract PolBridge {\n    uint _reservation;\n    FakeUsdc usdc = new FakeUsdc();\n    function calc_fee(uint _amount) public pure returns (uint) {\n        return (_amount * 4 / 10000) * 10 ** 6;\n    }\n    function deposit(uint _amount) public returns(bool) {\n        usdc.transfer(address(this), _amount);\n        return true;\n    }\n\n    function withdraw(uint _amount) public returns(bool) {\n        usdc.safeTransfer(address(this), msg.sender, (_amount + calc_fee(_amount)));\n        return true;\n    }\n}",
  "sourcePath": "/home/oncemore/BlockchainWork/usdc_bridge/contracts/PolBridge.sol",
  "compiler": {
    "name": "solc",
    "version": "0.8.4+commit.c7e474f2.Emscripten.clang"
  },
  "schemaVersion": "3.3.4",
  "updatedAt": "2021-05-28T16:23:47.427Z",
  "devdoc": {
    "kind": "dev",
    "methods": {},
    "version": 1
  },
  "userdoc": {
    "kind": "user",
    "methods": {},
    "version": 1
  }
}