{
  "contractName": "TimeLockedWallet",
  "abi": [
    {
      "inputs": [],
      "stateMutability": "nonpayable",
      "type": "constructor"
    },
    {
      "stateMutability": "payable",
      "type": "receive",
      "payable": true
    },
    {
      "inputs": [],
      "name": "withdraw",
      "outputs": [],
      "stateMutability": "nonpayable",
      "type": "function"
    },
    {
      "inputs": [
        {
          "internalType": "uint256",
          "name": "_amount",
          "type": "uint256"
        }
      ],
      "name": "deposition",
      "outputs": [
        {
          "internalType": "bool",
          "name": "",
          "type": "bool"
        }
      ],
      "stateMutability": "nonpayable",
      "type": "function"
    }
  ],
  "bytecode": "0x608060405234801561001057600080fd5b50336000806101000a81548173ffffffffffffffffffffffffffffffffffffffff021916908373ffffffffffffffffffffffffffffffffffffffff160217905550610220806100606000396000f3fe60806040526004361061002d5760003560e01c80633ccfd60b1461003957806364a69b8e1461005057610034565b3661003457005b600080fd5b34801561004557600080fd5b5061004e61008d565b005b34801561005c57600080fd5b506100776004803603810190610072919061016a565b61014e565b60405161008491906101a2565b60405180910390f35b60008054906101000a900473ffffffffffffffffffffffffffffffffffffffff1673ffffffffffffffffffffffffffffffffffffffff163373ffffffffffffffffffffffffffffffffffffffff16146100e557600080fd5b60008054906101000a900473ffffffffffffffffffffffffffffffffffffffff1673ffffffffffffffffffffffffffffffffffffffff166108fc479081150290604051600060405180830381858888f1935050505015801561014b573d6000803e3d6000fd5b50565b6000919050565b600081359050610164816101d3565b92915050565b60006020828403121561017c57600080fd5b600061018a84828501610155565b91505092915050565b61019c816101bd565b82525050565b60006020820190506101b76000830184610193565b92915050565b60008115159050919050565b6000819050919050565b6101dc816101c9565b81146101e757600080fd5b5056fea2646970667358221220e2dd0a1c949c6fbd97e538dc53b385502ee4a2832d2d1317502cb0099e13cc8664736f6c63430008040033",
  "immutableReferences": {},
  "source": "// SPDX-License-Identifier: MIT\npragma solidity ^0.8.0;\n\nimport \"@openzeppelin/contracts/token/ERC20/ERC20.sol\";\n\ncontract TimeLockedWallet {\n    address owner;\n    constructor() {\n        owner = msg.sender;\n    }\n    modifier onlyOwner {\n        require(msg.sender == owner);\n        _;\n    }\n    receive() payable external {}\n    function withdraw() onlyOwner public {\n        payable(owner).transfer(address(this).balance);\n    }\n\n    function deposition(uint _amount) public returns(bool) {\n        \n    }\n}",
  "sourcePath": "/home/oncemore/BlockchainWork/usdc_bridge/contracts/TimeLockedWallet.sol",
  "compiler": {
    "name": "solc",
    "version": "0.8.4+commit.c7e474f2.Emscripten.clang"
  },
  "schemaVersion": "3.3.4",
  "updatedAt": "2021-05-27T18:38:15.335Z",
  "networkType": "ethereum",
  "devdoc": {
    "kind": "dev",
    "methods": {},
    "version": 1
  },
  "userdoc": {
    "kind": "user",
    "methods": {},
    "version": 1
  }
}